{"abi":[{"type":"function","name":"addFromMsgValue","inputs":[],"outputs":[],"stateMutability":"payable"},{"type":"function","name":"addNumber","inputs":[{"name":"newNumber","type":"uint256","internalType":"uint256"}],"outputs":[],"stateMutability":"nonpayable"},{"type":"function","name":"getNumber","inputs":[],"outputs":[{"name":"","type":"uint256","internalType":"uint256"}],"stateMutability":"view"},{"type":"function","name":"increment","inputs":[],"outputs":[],"stateMutability":"nonpayable"},{"type":"function","name":"mulNumber","inputs":[{"name":"newNumber","type":"uint256","internalType":"uint256"}],"outputs":[],"stateMutability":"nonpayable"},{"type":"function","name":"number","inputs":[],"outputs":[{"name":"","type":"uint256","internalType":"uint256"}],"stateMutability":"view"},{"type":"function","name":"setNumber","inputs":[{"name":"newNumber","type":"uint256","internalType":"uint256"}],"outputs":[],"stateMutability":"nonpayable"}],"bytecode":{"object":"0x608080604052346015576101f3908161001b8239f35b600080fdfe608060405260048036101561001357600080fd5b600090813560e01c80633fb5c1cb146101925780634d4f58d1146101395780638381f58a14610092578063cd87baff14610121578063d09de08a146100b2578063f2c9ecd8146100925763fce680231461006c57600080fd5b3461008e57602060031936011261008e57610089903582546101aa565b815580f35b5080fd5b82346100af57806003193601126100af5760209054604051908152f35b80fd5b5090346100af57806003193601126100af5780547fffffffffffffffffffffffffffffffffffffffffffffffffffffffffffffffff81146100f557600101815580f35b5060116024927f4e487b7100000000000000000000000000000000000000000000000000000000835252fd5b82806003193601126100af57610089815434906101aa565b503461008e57602060031936011261008e5780359082548281029281840414901517156101665750815580f35b8260116024927f4e487b7100000000000000000000000000000000000000000000000000000000835252fd5b503461008e57602060031936011261008e5735815580f35b919082018092116101b757565b7f4e487b7100000000000000000000000000000000000000000000000000000000600052601160045260246000fdfea164736f6c6343000819000a","linkReferences":{}},"methodIdentifiers":{"addFromMsgValue()":"cd87baff","addNumber(uint256)":"fce68023","getNumber()":"f2c9ecd8","increment()":"d09de08a","mulNumber(uint256)":"4d4f58d1","number()":"8381f58a","setNumber(uint256)":"3fb5c1cb"},"id":0}