{"abi":[{"type":"function","name":"addFromMsgValue","inputs":[],"outputs":[],"stateMutability":"payable"},{"type":"function","name":"addNumber","inputs":[{"name":"newNumber","type":"uint256","internalType":"uint256"}],"outputs":[],"stateMutability":"nonpayable"},{"type":"function","name":"increment","inputs":[],"outputs":[],"stateMutability":"nonpayable"},{"type":"function","name":"mulNumber","inputs":[{"name":"newNumber","type":"uint256","internalType":"uint256"}],"outputs":[],"stateMutability":"nonpayable"},{"type":"function","name":"number","inputs":[],"outputs":[{"name":"","type":"uint256","internalType":"uint256"}],"stateMutability":"view"},{"type":"function","name":"setNumber","inputs":[{"name":"newNumber","type":"uint256","internalType":"uint256"}],"outputs":[],"stateMutability":"nonpayable"}],"bytecode":{"object":"0x608080604052346015576101e8908161001b8239f35b600080fdfe608060405260048036101561001357600080fd5b600090813560e01c80633fb5c1cb146101875780634d4f58d11461012e5780638381f58a14610111578063cd87baff146100f9578063d09de08a146100875763fce680231461006157600080fd5b346100835760206003193601126100835761007e9035825461019f565b815580f35b5080fd5b5090346100f657806003193601126100f65780547fffffffffffffffffffffffffffffffffffffffffffffffffffffffffffffffff81146100ca57600101815580f35b5060116024927f4e487b7100000000000000000000000000000000000000000000000000000000835252fd5b80fd5b82806003193601126100f65761007e8154349061019f565b82346100f657806003193601126100f65760209054604051908152f35b503461008357602060031936011261008357803590825482810292818404149015171561015b5750815580f35b8260116024927f4e487b7100000000000000000000000000000000000000000000000000000000835252fd5b50346100835760206003193601126100835735815580f35b919082018092116101ac57565b7f4e487b7100000000000000000000000000000000000000000000000000000000600052601160045260246000fdfea164736f6c6343000819000a","linkReferences":{}},"methodIdentifiers":{"addFromMsgValue()":"cd87baff","addNumber(uint256)":"fce68023","increment()":"d09de08a","mulNumber(uint256)":"4d4f58d1","number()":"8381f58a","setNumber(uint256)":"3fb5c1cb"},"id":7}